{
  "_format": "hh-sol-artifact-1",
  "contractName": "RoboPunksNFT",
  "sourceName": "contracts/RoboPunksNFT.sol",
  "abi": [
    {
      "inputs": [],
      "stateMutability": "payable",
      "type": "constructor"
    },
    {
      "anonymous": false,
      "inputs": [
        {
          "indexed": true,
          "internalType": "address",
          "name": "owner",
          "type": "address"
        },
        {
          "indexed": true,
          "internalType": "address",
          "name": "approved",
          "type": "address"
        },
        {
          "indexed": true,
          "internalType": "uint256",
          "name": "tokenId",
          "type": "uint256"
        }
      ],
      "name": "Approval",
      "type": "event"
    },
    {
      "anonymous": false,
      "inputs": [
        {
          "indexed": true,
          "internalType": "address",
          "name": "owner",
          "type": "address"
        },
        {
          "indexed": true,
          "internalType": "address",
          "name": "operator",
          "type": "address"
        },
        {
          "indexed": false,
          "internalType": "bool",
          "name": "approved",
          "type": "bool"
        }
      ],
      "name": "ApprovalForAll",
      "type": "event"
    },
    {
      "anonymous": false,
      "inputs": [
        {
          "indexed": true,
          "internalType": "address",
          "name": "previousOwner",
          "type": "address"
        },
        {
          "indexed": true,
          "internalType": "address",
          "name": "newOwner",
          "type": "address"
        }
      ],
      "name": "OwnershipTransferred",
      "type": "event"
    },
    {
      "anonymous": false,
      "inputs": [
        {
          "indexed": true,
          "internalType": "address",
          "name": "from",
          "type": "address"
        },
        {
          "indexed": true,
          "internalType": "address",
          "name": "to",
          "type": "address"
        },
        {
          "indexed": true,
          "internalType": "uint256",
          "name": "tokenId",
          "type": "uint256"
        }
      ],
      "name": "Transfer",
      "type": "event"
    },
    {
      "inputs": [
        {
          "internalType": "address",
          "name": "to",
          "type": "address"
        },
        {
          "internalType": "uint256",
          "name": "tokenId",
          "type": "uint256"
        }
      ],
      "name": "approve",
      "outputs": [],
      "stateMutability": "nonpayable",
      "type": "function"
    },
    {
      "inputs": [
        {
          "internalType": "address",
          "name": "owner",
          "type": "address"
        }
      ],
      "name": "balanceOf",
      "outputs": [
        {
          "internalType": "uint256",
          "name": "",
          "type": "uint256"
        }
      ],
      "stateMutability": "view",
      "type": "function"
    },
    {
      "inputs": [
        {
          "internalType": "uint256",
          "name": "tokenId",
          "type": "uint256"
        }
      ],
      "name": "getApproved",
      "outputs": [
        {
          "internalType": "address",
          "name": "",
          "type": "address"
        }
      ],
      "stateMutability": "view",
      "type": "function"
    },
    {
      "inputs": [
        {
          "internalType": "address",
          "name": "owner",
          "type": "address"
        },
        {
          "internalType": "address",
          "name": "operator",
          "type": "address"
        }
      ],
      "name": "isApprovedForAll",
      "outputs": [
        {
          "internalType": "bool",
          "name": "",
          "type": "bool"
        }
      ],
      "stateMutability": "view",
      "type": "function"
    },
    {
      "inputs": [],
      "name": "isPublicMintEnabled",
      "outputs": [
        {
          "internalType": "bool",
          "name": "",
          "type": "bool"
        }
      ],
      "stateMutability": "view",
      "type": "function"
    },
    {
      "inputs": [],
      "name": "maxPerWallet",
      "outputs": [
        {
          "internalType": "uint256",
          "name": "",
          "type": "uint256"
        }
      ],
      "stateMutability": "view",
      "type": "function"
    },
    {
      "inputs": [],
      "name": "maxSupply",
      "outputs": [
        {
          "internalType": "uint256",
          "name": "",
          "type": "uint256"
        }
      ],
      "stateMutability": "view",
      "type": "function"
    },
    {
      "inputs": [
        {
          "internalType": "uint256",
          "name": "quantity_",
          "type": "uint256"
        }
      ],
      "name": "mint",
      "outputs": [],
      "stateMutability": "payable",
      "type": "function"
    },
    {
      "inputs": [],
      "name": "mintPrice",
      "outputs": [
        {
          "internalType": "uint256",
          "name": "",
          "type": "uint256"
        }
      ],
      "stateMutability": "view",
      "type": "function"
    },
    {
      "inputs": [],
      "name": "name",
      "outputs": [
        {
          "internalType": "string",
          "name": "",
          "type": "string"
        }
      ],
      "stateMutability": "view",
      "type": "function"
    },
    {
      "inputs": [],
      "name": "owner",
      "outputs": [
        {
          "internalType": "address",
          "name": "",
          "type": "address"
        }
      ],
      "stateMutability": "view",
      "type": "function"
    },
    {
      "inputs": [
        {
          "internalType": "uint256",
          "name": "tokenId",
          "type": "uint256"
        }
      ],
      "name": "ownerOf",
      "outputs": [
        {
          "internalType": "address",
          "name": "",
          "type": "address"
        }
      ],
      "stateMutability": "view",
      "type": "function"
    },
    {
      "inputs": [],
      "name": "renounceOwnership",
      "outputs": [],
      "stateMutability": "nonpayable",
      "type": "function"
    },
    {
      "inputs": [
        {
          "internalType": "address",
          "name": "from",
          "type": "address"
        },
        {
          "internalType": "address",
          "name": "to",
          "type": "address"
        },
        {
          "internalType": "uint256",
          "name": "tokenId",
          "type": "uint256"
        }
      ],
      "name": "safeTransferFrom",
      "outputs": [],
      "stateMutability": "nonpayable",
      "type": "function"
    },
    {
      "inputs": [
        {
          "internalType": "address",
          "name": "from",
          "type": "address"
        },
        {
          "internalType": "address",
          "name": "to",
          "type": "address"
        },
        {
          "internalType": "uint256",
          "name": "tokenId",
          "type": "uint256"
        },
        {
          "internalType": "bytes",
          "name": "_data",
          "type": "bytes"
        }
      ],
      "name": "safeTransferFrom",
      "outputs": [],
      "stateMutability": "nonpayable",
      "type": "function"
    },
    {
      "inputs": [
        {
          "internalType": "address",
          "name": "operator",
          "type": "address"
        },
        {
          "internalType": "bool",
          "name": "approved",
          "type": "bool"
        }
      ],
      "name": "setApprovalForAll",
      "outputs": [],
      "stateMutability": "nonpayable",
      "type": "function"
    },
    {
      "inputs": [
        {
          "internalType": "string",
          "name": "baseTokenUri_",
          "type": "string"
        }
      ],
      "name": "setBaseTokenUri",
      "outputs": [],
      "stateMutability": "nonpayable",
      "type": "function"
    },
    {
      "inputs": [
        {
          "internalType": "bool",
          "name": "isPublicMintEnabled_",
          "type": "bool"
        }
      ],
      "name": "setIsPublicMintEnabled",
      "outputs": [],
      "stateMutability": "nonpayable",
      "type": "function"
    },
    {
      "inputs": [
        {
          "internalType": "bytes4",
          "name": "interfaceId",
          "type": "bytes4"
        }
      ],
      "name": "supportsInterface",
      "outputs": [
        {
          "internalType": "bool",
          "name": "",
          "type": "bool"
        }
      ],
      "stateMutability": "view",
      "type": "function"
    },
    {
      "inputs": [],
      "name": "symbol",
      "outputs": [
        {
          "internalType": "string",
          "name": "",
          "type": "string"
        }
      ],
      "stateMutability": "view",
      "type": "function"
    },
    {
      "inputs": [
        {
          "internalType": "uint256",
          "name": "tokenId_",
          "type": "uint256"
        }
      ],
      "name": "tokenURI",
      "outputs": [
        {
          "internalType": "string",
          "name": "",
          "type": "string"
        }
      ],
      "stateMutability": "view",
      "type": "function"
    },
    {
      "inputs": [],
      "name": "totalSupply",
      "outputs": [
        {
          "internalType": "uint256",
          "name": "",
          "type": "uint256"
        }
      ],
      "stateMutability": "view",
      "type": "function"
    },
    {
      "inputs": [
        {
          "internalType": "address",
          "name": "from",
          "type": "address"
        },
        {
          "internalType": "address",
          "name": "to",
          "type": "address"
        },
        {
          "internalType": "uint256",
          "name": "tokenId",
          "type": "uint256"
        }
      ],
      "name": "transferFrom",
      "outputs": [],
      "stateMutability": "nonpayable",
      "type": "function"
    },
    {
      "inputs": [
        {
          "internalType": "address",
          "name": "newOwner",
          "type": "address"
        }
      ],
      "name": "transferOwnership",
      "outputs": [],
      "stateMutability": "nonpayable",
      "type": "function"
    },
    {
      "inputs": [
        {
          "internalType": "address",
          "name": "",
          "type": "address"
        }
      ],
      "name": "walletMints",
      "outputs": [
        {
          "internalType": "uint256",
          "name": "",
          "type": "uint256"
        }
      ],
      "stateMutability": "view",
      "type": "function"
    },
    {
      "inputs": [],
      "name": "withdraw",
      "outputs": [],
      "stateMutability": "nonpayable",
      "type": "function"
    },
    {
      "inputs": [],
      "name": "withdrawWallet",
      "outputs": [
        {
          "internalType": "address payable",
          "name": "",
          "type": "address"
        }
      ],
      "stateMutability": "view",
      "type": "function"
    }
  ],
  "bytecode": "0x60806040526040518060400160405280600981526020017f526f626f50756e6b7300000000000000000000000000000000000000000000008152506040518060400160405280600281526020017f5250000000000000000000000000000000000000000000000000000000000000815250816000908051906020019062000088929190620001c0565b508060019080519060200190620000a1929190620001c0565b505050620000c4620000b8620000f260201b60201c565b620000fa60201b60201c565b6702c68af0bb14000060078190555060006008819055506103e86009819055506003600a81905550620002d5565b600033905090565b6000600660009054906101000a900473ffffffffffffffffffffffffffffffffffffffff16905081600660006101000a81548173ffffffffffffffffffffffffffffffffffffffff021916908373ffffffffffffffffffffffffffffffffffffffff1602179055508173ffffffffffffffffffffffffffffffffffffffff168173ffffffffffffffffffffffffffffffffffffffff167f8be0079c531659141344cd1fd0a4f28419497f9722a3daafe3b4186f6b6457e060405160405180910390a35050565b828054620001ce9062000270565b90600052602060002090601f016020900481019282620001f257600085556200023e565b82601f106200020d57805160ff19168380011785556200023e565b828001600101855582156200023e579182015b828111156200023d57825182559160200191906001019062000220565b5b5090506200024d919062000251565b5090565b5b808211156200026c57600081600090555060010162000252565b5090565b600060028204905060018216806200028957607f821691505b60208210811415620002a0576200029f620002a6565b5b50919050565b7f4e487b7100000000000000000000000000000000000000000000000000000000600052602260045260246000fd5b61372780620002e56000396000f3fe60806040526004361061019c5760003560e01c806370a08231116100ec578063a22cb4651161008a578063d5abeb0111610064578063d5abeb0114610593578063e985e9c5146105be578063f0293fd3146105fb578063f2fde38b146106385761019c565b8063a22cb46514610504578063b88d4fde1461052d578063c87b56dd146105565761019c565b80638da5cb5b116100c65780638da5cb5b1461046957806395652cfa1461049457806395d89b41146104bd578063a0712d68146104e85761019c565b806370a08231146103ea578063715018a61461042757806385d178f41461043e5761019c565b80632373ac221161015957806342842e0e1161013357806342842e0e1461032e578063453c2310146103575780636352211e146103825780636817c76c146103bf5761019c565b80632373ac22146102c557806323b872dd146102ee5780633ccfd60b146103175761019c565b80630116bc2d146101a157806301ffc9a7146101cc57806306fdde0314610209578063081812fc14610234578063095ea7b31461027157806318160ddd1461029a575b600080fd5b3480156101ad57600080fd5b506101b6610661565b6040516101c39190612a7b565b60405180910390f35b3480156101d857600080fd5b506101f360048036038101906101ee9190612495565b610674565b6040516102009190612a7b565b60405180910390f35b34801561021557600080fd5b5061021e610756565b60405161022b9190612a96565b60405180910390f35b34801561024057600080fd5b5061025b6004803603810190610256919061252c565b6107e8565b60405161026891906129f9565b60405180910390f35b34801561027d57600080fd5b5061029860048036038101906102939190612430565b61086d565b005b3480156102a657600080fd5b506102af610985565b6040516102bc9190612d38565b60405180910390f35b3480156102d157600080fd5b506102ec60048036038101906102e7919061246c565b61098b565b005b3480156102fa57600080fd5b506103156004803603810190610310919061232a565b610a24565b005b34801561032357600080fd5b5061032c610a84565b005b34801561033a57600080fd5b506103556004803603810190610350919061232a565b610bd1565b005b34801561036357600080fd5b5061036c610bf1565b6040516103799190612d38565b60405180910390f35b34801561038e57600080fd5b506103a960048036038101906103a4919061252c565b610bf7565b6040516103b691906129f9565b60405180910390f35b3480156103cb57600080fd5b506103d4610ca9565b6040516103e19190612d38565b60405180910390f35b3480156103f657600080fd5b50610411600480360381019061040c91906122c5565b610caf565b60405161041e9190612d38565b60405180910390f35b34801561043357600080fd5b5061043c610d67565b005b34801561044a57600080fd5b50610453610def565b6040516104609190612a14565b60405180910390f35b34801561047557600080fd5b5061047e610e15565b60405161048b91906129f9565b60405180910390f35b3480156104a057600080fd5b506104bb60048036038101906104b691906124e7565b610e3f565b005b3480156104c957600080fd5b506104d2610ed1565b6040516104df9190612a96565b60405180910390f35b61050260048036038101906104fd919061252c565b610f63565b005b34801561051057600080fd5b5061052b600480360381019061052691906123f4565b61113a565b005b34801561053957600080fd5b50610554600480360381019061054f9190612379565b611150565b005b34801561056257600080fd5b5061057d6004803603810190610578919061252c565b6111b2565b60405161058a9190612a96565b60405180910390f35b34801561059f57600080fd5b506105a861122e565b6040516105b59190612d38565b60405180910390f35b3480156105ca57600080fd5b506105e560048036038101906105e091906122ee565b611234565b6040516105f29190612a7b565b60405180910390f35b34801561060757600080fd5b50610622600480360381019061061d91906122c5565b6112c8565b60405161062f9190612d38565b60405180910390f35b34801561064457600080fd5b5061065f600480360381019061065a91906122c5565b6112e0565b005b600b60009054906101000a900460ff1681565b60007f80ac58cd000000000000000000000000000000000000000000000000000000007bffffffffffffffffffffffffffffffffffffffffffffffffffffffff1916827bffffffffffffffffffffffffffffffffffffffffffffffffffffffff1916148061073f57507f5b5e139f000000000000000000000000000000000000000000000000000000007bffffffffffffffffffffffffffffffffffffffffffffffffffffffff1916827bffffffffffffffffffffffffffffffffffffffffffffffffffffffff1916145b8061074f575061074e826113d8565b5b9050919050565b60606000805461076590612fe9565b80601f016020809104026020016040519081016040528092919081815260200182805461079190612fe9565b80156107de5780601f106107b3576101008083540402835291602001916107de565b820191906000526020600020905b8154815290600101906020018083116107c157829003601f168201915b5050505050905090565b60006107f382611442565b610832576040517f08c379a000000000000000000000000000000000000000000000000000000000815260040161082990612c58565b60405180910390fd5b6004600083815260200190815260200160002060009054906101000a900473ffffffffffffffffffffffffffffffffffffffff169050919050565b600061087882610bf7565b90508073ffffffffffffffffffffffffffffffffffffffff168373ffffffffffffffffffffffffffffffffffffffff1614156108e9576040517f08c379a00000000000000000000000000000000000000000000000000000000081526004016108e090612cb8565b60405180910390fd5b8073ffffffffffffffffffffffffffffffffffffffff166109086114ae565b73ffffffffffffffffffffffffffffffffffffffff1614806109375750610936816109316114ae565b611234565b5b610976576040517f08c379a000000000000000000000000000000000000000000000000000000000815260040161096d90612bd8565b60405180910390fd5b61098083836114b6565b505050565b60085481565b6109936114ae565b73ffffffffffffffffffffffffffffffffffffffff166109b1610e15565b73ffffffffffffffffffffffffffffffffffffffff1614610a07576040517f08c379a00000000000000000000000000000000000000000000000000000000081526004016109fe90612c98565b60405180910390fd5b80600b60006101000a81548160ff02191690831515021790555050565b610a35610a2f6114ae565b8261156f565b610a74576040517f08c379a0000000000000000000000000000000000000000000000000000000008152600401610a6b90612cd8565b60405180910390fd5b610a7f83838361164d565b505050565b610a8c6114ae565b73ffffffffffffffffffffffffffffffffffffffff16610aaa610e15565b73ffffffffffffffffffffffffffffffffffffffff1614610b00576040517f08c379a0000000000000000000000000000000000000000000000000000000008152600401610af790612c98565b60405180910390fd5b6000600d60009054906101000a900473ffffffffffffffffffffffffffffffffffffffff1673ffffffffffffffffffffffffffffffffffffffff1647604051610b48906129e4565b60006040518083038185875af1925050503d8060008114610b85576040519150601f19603f3d011682016040523d82523d6000602084013e610b8a565b606091505b5050905080610bce576040517f08c379a0000000000000000000000000000000000000000000000000000000008152600401610bc590612d18565b60405180910390fd5b50565b610bec83838360405180602001604052806000815250611150565b505050565b600a5481565b6000806002600084815260200190815260200160002060009054906101000a900473ffffffffffffffffffffffffffffffffffffffff169050600073ffffffffffffffffffffffffffffffffffffffff168173ffffffffffffffffffffffffffffffffffffffff161415610ca0576040517f08c379a0000000000000000000000000000000000000000000000000000000008152600401610c9790612c18565b60405180910390fd5b80915050919050565b60075481565b60008073ffffffffffffffffffffffffffffffffffffffff168273ffffffffffffffffffffffffffffffffffffffff161415610d20576040517f08c379a0000000000000000000000000000000000000000000000000000000008152600401610d1790612bf8565b60405180910390fd5b600360008373ffffffffffffffffffffffffffffffffffffffff1673ffffffffffffffffffffffffffffffffffffffff168152602001908152602001600020549050919050565b610d6f6114ae565b73ffffffffffffffffffffffffffffffffffffffff16610d8d610e15565b73ffffffffffffffffffffffffffffffffffffffff1614610de3576040517f08c379a0000000000000000000000000000000000000000000000000000000008152600401610dda90612c98565b60405180910390fd5b610ded60006118b4565b565b600d60009054906101000a900473ffffffffffffffffffffffffffffffffffffffff1681565b6000600660009054906101000a900473ffffffffffffffffffffffffffffffffffffffff16905090565b610e476114ae565b73ffffffffffffffffffffffffffffffffffffffff16610e65610e15565b73ffffffffffffffffffffffffffffffffffffffff1614610ebb576040517f08c379a0000000000000000000000000000000000000000000000000000000008152600401610eb290612c98565b60405180910390fd5b8181600c9190610ecc929190612107565b505050565b606060018054610ee090612fe9565b80601f0160208091040260200160405190810160405280929190818152602001828054610f0c90612fe9565b8015610f595780601f10610f2e57610100808354040283529160200191610f59565b820191906000526020600020905b815481529060010190602001808311610f3c57829003601f168201915b5050505050905090565b600b60009054906101000a900460ff16610fb2576040517f08c379a0000000000000000000000000000000000000000000000000000000008152600401610fa990612af8565b60405180910390fd5b60075481610fc09190612e93565b3414611001576040517f08c379a0000000000000000000000000000000000000000000000000000000008152600401610ff890612ab8565b60405180910390fd5b600a54816008546110129190612e0c565b1115611053576040517f08c379a000000000000000000000000000000000000000000000000000000000815260040161104a90612c78565b60405180910390fd5b600a5481600e60003373ffffffffffffffffffffffffffffffffffffffff1673ffffffffffffffffffffffffffffffffffffffff168152602001908152602001600020546110a19190612e0c565b11156110e2576040517f08c379a00000000000000000000000000000000000000000000000000000000081526004016110d990612c78565b60405180910390fd5b60005b8181101561113657600060016008546110fe9190612e0c565b9050600860008154809291906111139061304c565b9190505550611122338261197a565b50808061112e9061304c565b9150506110e5565b5050565b61114c6111456114ae565b8383611998565b5050565b61116161115b6114ae565b8361156f565b6111a0576040517f08c379a000000000000000000000000000000000000000000000000000000000815260040161119790612cd8565b60405180910390fd5b6111ac84848484611b05565b50505050565b60606111bd82611442565b6111fc576040517f08c379a00000000000000000000000000000000000000000000000000000000081526004016111f390612cf8565b60405180910390fd5b600c61120783611b61565b6040516020016112189291906129b5565b6040516020818303038152906040529050919050565b60095481565b6000600560008473ffffffffffffffffffffffffffffffffffffffff1673ffffffffffffffffffffffffffffffffffffffff16815260200190815260200160002060008373ffffffffffffffffffffffffffffffffffffffff1673ffffffffffffffffffffffffffffffffffffffff16815260200190815260200160002060009054906101000a900460ff16905092915050565b600e6020528060005260406000206000915090505481565b6112e86114ae565b73ffffffffffffffffffffffffffffffffffffffff16611306610e15565b73ffffffffffffffffffffffffffffffffffffffff161461135c576040517f08c379a000000000000000000000000000000000000000000000000000000000815260040161135390612c98565b60405180910390fd5b600073ffffffffffffffffffffffffffffffffffffffff168173ffffffffffffffffffffffffffffffffffffffff1614156113cc576040517f08c379a00000000000000000000000000000000000000000000000000000000081526004016113c390612b18565b60405180910390fd5b6113d5816118b4565b50565b60007f01ffc9a7000000000000000000000000000000000000000000000000000000007bffffffffffffffffffffffffffffffffffffffffffffffffffffffff1916827bffffffffffffffffffffffffffffffffffffffffffffffffffffffff1916149050919050565b60008073ffffffffffffffffffffffffffffffffffffffff166002600084815260200190815260200160002060009054906101000a900473ffffffffffffffffffffffffffffffffffffffff1673ffffffffffffffffffffffffffffffffffffffff1614159050919050565b600033905090565b816004600083815260200190815260200160002060006101000a81548173ffffffffffffffffffffffffffffffffffffffff021916908373ffffffffffffffffffffffffffffffffffffffff160217905550808273ffffffffffffffffffffffffffffffffffffffff1661152983610bf7565b73ffffffffffffffffffffffffffffffffffffffff167f8c5be1e5ebec7d5bd14f71427d1e84f3dd0314c0f7b2291e5b200ac8c7c3b92560405160405180910390a45050565b600061157a82611442565b6115b9576040517f08c379a00000000000000000000000000000000000000000000000000000000081526004016115b090612bb8565b60405180910390fd5b60006115c483610bf7565b90508073ffffffffffffffffffffffffffffffffffffffff168473ffffffffffffffffffffffffffffffffffffffff16148061160657506116058185611234565b5b8061164457508373ffffffffffffffffffffffffffffffffffffffff1661162c846107e8565b73ffffffffffffffffffffffffffffffffffffffff16145b91505092915050565b8273ffffffffffffffffffffffffffffffffffffffff1661166d82610bf7565b73ffffffffffffffffffffffffffffffffffffffff16146116c3576040517f08c379a00000000000000000000000000000000000000000000000000000000081526004016116ba90612b38565b60405180910390fd5b600073ffffffffffffffffffffffffffffffffffffffff168273ffffffffffffffffffffffffffffffffffffffff161415611733576040517f08c379a000000000000000000000000000000000000000000000000000000000815260040161172a90612b78565b60405180910390fd5b61173e838383611d0e565b6117496000826114b6565b6001600360008573ffffffffffffffffffffffffffffffffffffffff1673ffffffffffffffffffffffffffffffffffffffff16815260200190815260200160002060008282546117999190612eed565b925050819055506001600360008473ffffffffffffffffffffffffffffffffffffffff1673ffffffffffffffffffffffffffffffffffffffff16815260200190815260200160002060008282546117f09190612e0c565b92505081905550816002600083815260200190815260200160002060006101000a81548173ffffffffffffffffffffffffffffffffffffffff021916908373ffffffffffffffffffffffffffffffffffffffff160217905550808273ffffffffffffffffffffffffffffffffffffffff168473ffffffffffffffffffffffffffffffffffffffff167fddf252ad1be2c89b69c2b068fc378daa952ba7f163c4a11628f55a4df523b3ef60405160405180910390a46118af838383611d13565b505050565b6000600660009054906101000a900473ffffffffffffffffffffffffffffffffffffffff16905081600660006101000a81548173ffffffffffffffffffffffffffffffffffffffff021916908373ffffffffffffffffffffffffffffffffffffffff1602179055508173ffffffffffffffffffffffffffffffffffffffff168173ffffffffffffffffffffffffffffffffffffffff167f8be0079c531659141344cd1fd0a4f28419497f9722a3daafe3b4186f6b6457e060405160405180910390a35050565b611994828260405180602001604052806000815250611d18565b5050565b8173ffffffffffffffffffffffffffffffffffffffff168373ffffffffffffffffffffffffffffffffffffffff161415611a07576040517f08c379a00000000000000000000000000000000000000000000000000000000081526004016119fe90612b98565b60405180910390fd5b80600560008573ffffffffffffffffffffffffffffffffffffffff1673ffffffffffffffffffffffffffffffffffffffff16815260200190815260200160002060008473ffffffffffffffffffffffffffffffffffffffff1673ffffffffffffffffffffffffffffffffffffffff16815260200190815260200160002060006101000a81548160ff0219169083151502179055508173ffffffffffffffffffffffffffffffffffffffff168373ffffffffffffffffffffffffffffffffffffffff167f17307eab39ab6107e8899845ad3d59bd9653f200f220920489ca2b5937696c3183604051611af89190612a7b565b60405180910390a3505050565b611b1084848461164d565b611b1c84848484611d73565b611b5b576040517f08c379a0000000000000000000000000000000000000000000000000000000008152600401611b5290612ad8565b60405180910390fd5b50505050565b60606000821415611ba9576040518060400160405280600181526020017f30000000000000000000000000000000000000000000000000000000000000008152509050611d09565b600082905060005b60008214611bdb578080611bc49061304c565b915050600a82611bd49190612e62565b9150611bb1565b60008167ffffffffffffffff811115611c1d577f4e487b7100000000000000000000000000000000000000000000000000000000600052604160045260246000fd5b6040519080825280601f01601f191660200182016040528015611c4f5781602001600182028036833780820191505090505b5090505b60008514611d0257600182611c689190612eed565b9150600a85611c779190613095565b6030611c839190612e0c565b60f81b818381518110611cbf577f4e487b7100000000000000000000000000000000000000000000000000000000600052603260045260246000fd5b60200101907effffffffffffffffffffffffffffffffffffffffffffffffffffffffffffff1916908160001a905350600a85611cfb9190612e62565b9450611c53565b8093505050505b919050565b505050565b505050565b611d228383611f0a565b611d2f6000848484611d73565b611d6e576040517f08c379a0000000000000000000000000000000000000000000000000000000008152600401611d6590612ad8565b60405180910390fd5b505050565b6000611d948473ffffffffffffffffffffffffffffffffffffffff166120e4565b15611efd578373ffffffffffffffffffffffffffffffffffffffff1663150b7a02611dbd6114ae565b8786866040518563ffffffff1660e01b8152600401611ddf9493929190612a2f565b602060405180830381600087803b158015611df957600080fd5b505af1925050508015611e2a57506040513d601f19601f82011682018060405250810190611e2791906124be565b60015b611ead573d8060008114611e5a576040519150601f19603f3d011682016040523d82523d6000602084013e611e5f565b606091505b50600081511415611ea5576040517f08c379a0000000000000000000000000000000000000000000000000000000008152600401611e9c90612ad8565b60405180910390fd5b805181602001fd5b63150b7a0260e01b7bffffffffffffffffffffffffffffffffffffffffffffffffffffffff1916817bffffffffffffffffffffffffffffffffffffffffffffffffffffffff191614915050611f02565b600190505b949350505050565b600073ffffffffffffffffffffffffffffffffffffffff168273ffffffffffffffffffffffffffffffffffffffff161415611f7a576040517f08c379a0000000000000000000000000000000000000000000000000000000008152600401611f7190612c38565b60405180910390fd5b611f8381611442565b15611fc3576040517f08c379a0000000000000000000000000000000000000000000000000000000008152600401611fba90612b58565b60405180910390fd5b611fcf60008383611d0e565b6001600360008473ffffffffffffffffffffffffffffffffffffffff1673ffffffffffffffffffffffffffffffffffffffff168152602001908152602001600020600082825461201f9190612e0c565b92505081905550816002600083815260200190815260200160002060006101000a81548173ffffffffffffffffffffffffffffffffffffffff021916908373ffffffffffffffffffffffffffffffffffffffff160217905550808273ffffffffffffffffffffffffffffffffffffffff16600073ffffffffffffffffffffffffffffffffffffffff167fddf252ad1be2c89b69c2b068fc378daa952ba7f163c4a11628f55a4df523b3ef60405160405180910390a46120e060008383611d13565b5050565b6000808273ffffffffffffffffffffffffffffffffffffffff163b119050919050565b82805461211390612fe9565b90600052602060002090601f016020900481019282612135576000855561217c565b82601f1061214e57803560ff191683800117855561217c565b8280016001018555821561217c579182015b8281111561217b578235825591602001919060010190612160565b5b509050612189919061218d565b5090565b5b808211156121a657600081600090555060010161218e565b5090565b60006121bd6121b884612d78565b612d53565b9050828152602081018484840111156121d557600080fd5b6121e0848285612fa7565b509392505050565b6000813590506121f781613695565b92915050565b60008135905061220c816136ac565b92915050565b600081359050612221816136c3565b92915050565b600081519050612236816136c3565b92915050565b600082601f83011261224d57600080fd5b813561225d8482602086016121aa565b91505092915050565b60008083601f84011261227857600080fd5b8235905067ffffffffffffffff81111561229157600080fd5b6020830191508360018202830111156122a957600080fd5b9250929050565b6000813590506122bf816136da565b92915050565b6000602082840312156122d757600080fd5b60006122e5848285016121e8565b91505092915050565b6000806040838503121561230157600080fd5b600061230f858286016121e8565b9250506020612320858286016121e8565b9150509250929050565b60008060006060848603121561233f57600080fd5b600061234d868287016121e8565b935050602061235e868287016121e8565b925050604061236f868287016122b0565b9150509250925092565b6000806000806080858703121561238f57600080fd5b600061239d878288016121e8565b94505060206123ae878288016121e8565b93505060406123bf878288016122b0565b925050606085013567ffffffffffffffff8111156123dc57600080fd5b6123e88782880161223c565b91505092959194509250565b6000806040838503121561240757600080fd5b6000612415858286016121e8565b9250506020612426858286016121fd565b9150509250929050565b6000806040838503121561244357600080fd5b6000612451858286016121e8565b9250506020612462858286016122b0565b9150509250929050565b60006020828403121561247e57600080fd5b600061248c848285016121fd565b91505092915050565b6000602082840312156124a757600080fd5b60006124b584828501612212565b91505092915050565b6000602082840312156124d057600080fd5b60006124de84828501612227565b91505092915050565b600080602083850312156124fa57600080fd5b600083013567ffffffffffffffff81111561251457600080fd5b61252085828601612266565b92509250509250929050565b60006020828403121561253e57600080fd5b600061254c848285016122b0565b91505092915050565b61255e81612f33565b82525050565b61256d81612f21565b82525050565b61257c81612f45565b82525050565b600061258d82612dbe565b6125978185612dd4565b93506125a7818560208601612fb6565b6125b081613182565b840191505092915050565b60006125c682612dc9565b6125d08185612df0565b93506125e0818560208601612fb6565b6125e981613182565b840191505092915050565b60006125ff82612dc9565b6126098185612e01565b9350612619818560208601612fb6565b80840191505092915050565b6000815461263281612fe9565b61263c8186612e01565b9450600182166000811461265757600181146126685761269b565b60ff1983168652818601935061269b565b61267185612da9565b60005b8381101561269357815481890152600182019150602081019050612674565b838801955050505b50505092915050565b60006126b1601083612df0565b91506126bc82613193565b602082019050919050565b60006126d4603283612df0565b91506126df826131bc565b604082019050919050565b60006126f7601383612df0565b91506127028261320b565b602082019050919050565b600061271a602683612df0565b915061272582613234565b604082019050919050565b600061273d602583612df0565b915061274882613283565b604082019050919050565b6000612760601c83612df0565b915061276b826132d2565b602082019050919050565b6000612783602483612df0565b915061278e826132fb565b604082019050919050565b60006127a6601983612df0565b91506127b18261334a565b602082019050919050565b60006127c9602c83612df0565b91506127d482613373565b604082019050919050565b60006127ec603883612df0565b91506127f7826133c2565b604082019050919050565b600061280f602a83612df0565b915061281a82613411565b604082019050919050565b6000612832602983612df0565b915061283d82613460565b604082019050919050565b6000612855602083612df0565b9150612860826134af565b602082019050919050565b6000612878602c83612df0565b9150612883826134d8565b604082019050919050565b600061289b600583612e01565b91506128a682613527565b600582019050919050565b60006128be601183612df0565b91506128c982613550565b602082019050919050565b60006128e1602083612df0565b91506128ec82613579565b602082019050919050565b6000612904602183612df0565b915061290f826135a2565b604082019050919050565b6000612927600083612de5565b9150612932826135f1565b600082019050919050565b600061294a603183612df0565b9150612955826135f4565b604082019050919050565b600061296d601583612df0565b915061297882613643565b602082019050919050565b6000612990600f83612df0565b915061299b8261366c565b602082019050919050565b6129af81612f9d565b82525050565b60006129c18285612625565b91506129cd82846125f4565b91506129d88261288e565b91508190509392505050565b60006129ef8261291a565b9150819050919050565b6000602082019050612a0e6000830184612564565b92915050565b6000602082019050612a296000830184612555565b92915050565b6000608082019050612a446000830187612564565b612a516020830186612564565b612a5e60408301856129a6565b8181036060830152612a708184612582565b905095945050505050565b6000602082019050612a906000830184612573565b92915050565b60006020820190508181036000830152612ab081846125bb565b905092915050565b60006020820190508181036000830152612ad1816126a4565b9050919050565b60006020820190508181036000830152612af1816126c7565b9050919050565b60006020820190508181036000830152612b11816126ea565b9050919050565b60006020820190508181036000830152612b318161270d565b9050919050565b60006020820190508181036000830152612b5181612730565b9050919050565b60006020820190508181036000830152612b7181612753565b9050919050565b60006020820190508181036000830152612b9181612776565b9050919050565b60006020820190508181036000830152612bb181612799565b9050919050565b60006020820190508181036000830152612bd1816127bc565b9050919050565b60006020820190508181036000830152612bf1816127df565b9050919050565b60006020820190508181036000830152612c1181612802565b9050919050565b60006020820190508181036000830152612c3181612825565b9050919050565b60006020820190508181036000830152612c5181612848565b9050919050565b60006020820190508181036000830152612c718161286b565b9050919050565b60006020820190508181036000830152612c91816128b1565b9050919050565b60006020820190508181036000830152612cb1816128d4565b9050919050565b60006020820190508181036000830152612cd1816128f7565b9050919050565b60006020820190508181036000830152612cf18161293d565b9050919050565b60006020820190508181036000830152612d1181612960565b9050919050565b60006020820190508181036000830152612d3181612983565b9050919050565b6000602082019050612d4d60008301846129a6565b92915050565b6000612d5d612d6e565b9050612d69828261301b565b919050565b6000604051905090565b600067ffffffffffffffff821115612d9357612d92613153565b5b612d9c82613182565b9050602081019050919050565b60008190508160005260206000209050919050565b600081519050919050565b600081519050919050565b600082825260208201905092915050565b600081905092915050565b600082825260208201905092915050565b600081905092915050565b6000612e1782612f9d565b9150612e2283612f9d565b9250827fffffffffffffffffffffffffffffffffffffffffffffffffffffffffffffffff03821115612e5757612e566130c6565b5b828201905092915050565b6000612e6d82612f9d565b9150612e7883612f9d565b925082612e8857612e876130f5565b5b828204905092915050565b6000612e9e82612f9d565b9150612ea983612f9d565b9250817fffffffffffffffffffffffffffffffffffffffffffffffffffffffffffffffff0483118215151615612ee257612ee16130c6565b5b828202905092915050565b6000612ef882612f9d565b9150612f0383612f9d565b925082821015612f1657612f156130c6565b5b828203905092915050565b6000612f2c82612f7d565b9050919050565b6000612f3e82612f7d565b9050919050565b60008115159050919050565b60007fffffffff0000000000000000000000000000000000000000000000000000000082169050919050565b600073ffffffffffffffffffffffffffffffffffffffff82169050919050565b6000819050919050565b82818337600083830152505050565b60005b83811015612fd4578082015181840152602081019050612fb9565b83811115612fe3576000848401525b50505050565b6000600282049050600182168061300157607f821691505b6020821081141561301557613014613124565b5b50919050565b61302482613182565b810181811067ffffffffffffffff8211171561304357613042613153565b5b80604052505050565b600061305782612f9d565b91507fffffffffffffffffffffffffffffffffffffffffffffffffffffffffffffffff82141561308a576130896130c6565b5b600182019050919050565b60006130a082612f9d565b91506130ab83612f9d565b9250826130bb576130ba6130f5565b5b828206905092915050565b7f4e487b7100000000000000000000000000000000000000000000000000000000600052601160045260246000fd5b7f4e487b7100000000000000000000000000000000000000000000000000000000600052601260045260246000fd5b7f4e487b7100000000000000000000000000000000000000000000000000000000600052602260045260246000fd5b7f4e487b7100000000000000000000000000000000000000000000000000000000600052604160045260246000fd5b6000601f19601f8301169050919050565b7f77726f6e67206d696e742076616c756500000000000000000000000000000000600082015250565b7f4552433732313a207472616e7366657220746f206e6f6e20455243373231526560008201527f63656976657220696d706c656d656e7465720000000000000000000000000000602082015250565b7f6d696e74696e67206e6f7420656e61626c656400000000000000000000000000600082015250565b7f4f776e61626c653a206e6577206f776e657220697320746865207a65726f206160008201527f6464726573730000000000000000000000000000000000000000000000000000602082015250565b7f4552433732313a207472616e736665722066726f6d20696e636f72726563742060008201527f6f776e6572000000000000000000000000000000000000000000000000000000602082015250565b7f4552433732313a20746f6b656e20616c7265616479206d696e74656400000000600082015250565b7f4552433732313a207472616e7366657220746f20746865207a65726f2061646460008201527f7265737300000000000000000000000000000000000000000000000000000000602082015250565b7f4552433732313a20617070726f766520746f2063616c6c657200000000000000600082015250565b7f4552433732313a206f70657261746f7220717565727920666f72206e6f6e657860008201527f697374656e7420746f6b656e0000000000000000000000000000000000000000602082015250565b7f4552433732313a20617070726f76652063616c6c6572206973206e6f74206f7760008201527f6e6572206e6f7220617070726f76656420666f7220616c6c0000000000000000602082015250565b7f4552433732313a2062616c616e636520717565727920666f7220746865207a6560008201527f726f206164647265737300000000000000000000000000000000000000000000602082015250565b7f4552433732313a206f776e657220717565727920666f72206e6f6e657869737460008201527f656e7420746f6b656e0000000000000000000000000000000000000000000000602082015250565b7f4552433732313a206d696e7420746f20746865207a65726f2061646472657373600082015250565b7f4552433732313a20617070726f76656420717565727920666f72206e6f6e657860008201527f697374656e7420746f6b656e0000000000000000000000000000000000000000602082015250565b7f2e6a736f6e000000000000000000000000000000000000000000000000000000600082015250565b7f657863656564206d61782077616c6c6574000000000000000000000000000000600082015250565b7f4f776e61626c653a2063616c6c6572206973206e6f7420746865206f776e6572600082015250565b7f4552433732313a20617070726f76616c20746f2063757272656e74206f776e6560008201527f7200000000000000000000000000000000000000000000000000000000000000602082015250565b50565b7f4552433732313a207472616e736665722063616c6c6572206973206e6f74206f60008201527f776e6572206e6f7220617070726f766564000000000000000000000000000000602082015250565b7f546f6b656e20646f6573206e6f74206578697374210000000000000000000000600082015250565b7f7769746864726177206661696c65640000000000000000000000000000000000600082015250565b61369e81612f21565b81146136a957600080fd5b50565b6136b581612f45565b81146136c057600080fd5b50565b6136cc81612f51565b81146136d757600080fd5b50565b6136e381612f9d565b81146136ee57600080fd5b5056fea2646970667358221220ef83b11d8fbda93a7ab509d7480dcd6d4f24a6dc8fc8539f7bec61fcd316fa7564736f6c63430008040033",
  "linkReferences": {},
  "deployedLinkReferences": {}
}